:020000040800F2
:10000000002000205D220008E9210008EB21000803
:1000100000000000000000000000000000000000E0
:10002000000000000000000000000000351C000877
:100030000000000000000000A11C0008E51C0008F2
:10004000AD22000800000000AD220008AD2200082B
:10005000AD220008AD220008AD220008AD22000844
:1000600000000000AD220008AD220008AD2200080B
:10007000AD220008AD220008AD22000800000000FB
:10008000ED210008AD22000800000000AD220008AC
:10009000AD220008AD220008AD220008AD22000804
:1000A000AD220008AD220008AD220008AD220008F4
:1000B000AD22000800000000000000000000000069
:1000C00010B5064C2378002B07D1054B002B02D02E
:1000D000044800E000BF0123237010BD0800002089
:1000E000000000001C230008044B10B5002B03D0B7
:1000F0000349044800E000BF10BDC04600000000F6
:100100000C0000201C230008002243088B4274D3FB
:1001100003098B425FD3030A8B4244D3030B8B4208
:1001200028D3030C8B420DD3FF22090212BA030C11
:100130008B4202D31212090265D0030B8B4219D3F2
:1001400000E0090AC30B8B4201D3CB03C01A524112
:10015000830B8B4201D38B03C01A5241430B8B425A
:1001600001D34B03C01A5241030B8B4201D30B0343
:10017000C01A5241C30A8B4201D3CB02C01A52416A
:10018000830A8B4201D38B02C01A5241430A8B422D
:1001900001D34B02C01A5241030A8B4201D30B0216
:1001A000C01A5241CDD2C3098B4201D3CB01C01A30
:1001B000524183098B4201D38B01C01A524143093A
:1001C0008B4201D34B01C01A524103098B4201D328
:1001D0000B01C01A5241C3088B4201D3CB00C01A95
:1001E000524183088B4201D38B00C01A524143080D
:1001F0008B4201D34B00C01A5241411A00D2014632
:10020000524110467047FFE701B5002000F006F8A4
:1002100002BDC0460029F7D076E770477047C04658
:1002200010B5064A136810210B431360002001F03B
:100230009FFF01F04DFF002010BDC046002002408E
:10024000024A1368013313607047C046680D0020EE
:10025000014B18687047C046680D002070B5002833
:1002600011DB8408134DC034A400625903231840E5
:10027000C000FC331E008640B24389010B4083401E
:100280001343635170BDC0B20F220240083A920876
:1002900006329200084BD3185D6803242040C0004A
:1002A000FF2214008440A54389010A4082402A436A
:1002B0005A60E7E700E100E000ED00E01F2318408E
:1002C0001E3B8340014A13607047C04600E100E0D6
:1002D000F0B5C64600B582B0002338E0032600E042
:1002E0000026AE4035003D430234A400554EA551D2
:1002F000554C25684246D4432E0026404A68D20316
:1003000002D5424615432E004F4D2E606D682E00DB
:1003100026404A68920302D5424615432E004A4DB4
:100320006E60AD682E0026404A68D20202D5424671
:1003300015432E00444DAE60ED682C404A68920291
:1003400002D542462A4314003F4AD46001330A686A
:100350001400DC4071D001259D402A409046F5D024
:100360004C68022C01D0122C0ED1DC080834A400F9
:10037000275807261E40B6000F22B24097430A694D
:10038000B24016003E43265002685F000324260058
:10039000BE40F643324094464A681440BC40624630
:1003A000144304604C68621E012A03D9112C01D049
:1003B000122C10D184683440A446CC68BC406246FC
:1003C000144384604468AC434A681209012515400F
:1003D0009D4025434560C46826408C68BC4034433A
:1003E000C4604A68D200B1D5184DAE6901242643D5
:1003F000AE61AD692C400194019C9C08A51CAD0028
:10040000104EAF5903251D40AD000F26AE40B74337
:100410009026F605B04200D162E70D4EB04208D0FA
:100420000C4EB04207D00C4EB04200D156E7052624
:1004300057E7012655E7022653E702B004BC904671
:10044000F0BDC04600000140000401400010024021
:100450000004004800080048000C0048002A01D1B0
:10046000816270478161FCE770B582B00400036867
:10047000DB0726D5AE4B5A680C231340042B18D04B
:10048000AB4B5A680C231340082B0ED06368012B2A
:100490003CD0002B51D1A64B1A68A6490A401A60DD
:1004A0001A68A5490A401A6036E0A14B5B68DB0375
:1004B000ECD59F4B1B689B0303D56368002B00D1D1
:1004C000ECE123689B0773D5994B5B680C221A42B9
:1004D0005DD0974B5A680C231340082B53D0E36828
:1004E000002B00D186E0924A136801210B43136070
:1004F000FFF7AEFE05008E4B1B689B0771D4FFF71C
:10050000A7FE401B0228F6D90320CAE1884A1168D9
:1005100080235B020B4313606368002B25D0FFF739
:1005200097FE0500824B1B689B03CAD4FFF790FE21
:10053000401B6428F6D90320B3E1052B09D07C4B7E
:100540001A687C490A401A601A687B490A401A6096
:10055000E2E7774B19688022D2020A431A601968D1
:10056000802252020A431A60D6E7FFF771FE0500A7
:100570006F4B1B689B03A4D5FFF76AFE401B6428E2
:10058000F6D903208DE16A4B5B68DB03A7D4684B87
:100590001B689B0704D5E368012B01D0012080E193
:1005A00063490B68F82293432269D20013430B601E
:1005B00023681B0744D5E369002B2ED05C4A536A9D
:1005C00001210B435362FFF743FE0500584B5B6A62
:1005D0009B0735D4FFF73CFE401B0228F6D90320C9
:1005E0005FE153490B68F82293432269D200134319
:1005F0000B60DDE74E4A136801218B431360FFF760
:1006000027FE05004A4B1B689B07D1D5FFF720FE4C
:10061000401B0228F6D9032043E1454A536A0121D1
:100620008B435362FFF714FE0500414B5B6A9B0747
:1006300006D5FFF70DFE401B0228F6D9032030E156
:1006400023685B0700D47FE0394BDB69DB001DD4F6
:10065000374AD169802040050143D161D369034005
:100660000193019B0125354B1B68DB0510D5A36861
:10067000012B21D0002B36D12D4B1A6A01218A4340
:100680001A621A6A03318A431A621AE00025EAE7FD
:100690002A4A116880235B000B431360FFF7D8FDE3
:1006A0000600264B1B68DB05E1D4FFF7D1FD801B5C
:1006B0006428F6D90320F4E01D4A136A01210B4394
:1006C0001362A368002B24D0FFF7C2FD0600184B6D
:1006D0001B6A9B0736D4FFF7BBFD801B184B984263
:1006E000F5D90320DDE0052B09D0114B1A6A012151
:1006F0008A431A621A6A03318A431A62E1E70C4B91
:100700001A6A04210A431A621A6A03390A431A62EE
:10071000D7E7FFF79DFD0600054B1B6A9B0711D528
:10072000FFF796FD801B064B9842F5D90320B8E0F1
:1007300000100240FFFFFEFFFFFFFBFF00700040C4
:1007400088130000012D33D02368DB0610D56369C0
:10075000012B33D0053351D1544A536B04218B43C1
:100760005363536BF4318B43A169C9000B4353634B
:10077000236A002B00D193E04C4A51680C220A40B6
:10078000082A00D18FE0022B4FD0484A136848490D
:100790000B401360FFF75CFD0400444B1B689B019A
:1007A0007AD5FFF755FD001B0228F6D9032078E023
:1007B0003E4AD3693F490B40D361C5E73B4B5A6B77
:1007C00004210A435A635A6B03390A435A63FFF7F9
:1007D0003FFD0500354B5B6B9B0706D4FFF738FDEB
:1007E000401B0228F6D903205BE030494B6BF8220E
:1007F0009343A269D20013434B63B9E72B4B5A6B67
:1008000004210A435A635A6B03398A435A63FFF738
:100810001FFD0500254B5B6B9B07A9D5FFF718FD56
:10082000401B0228F6D903203BE0204A13682049E8
:100830000B401360FFF70CFD05001C4B1B689B0170
:1008400006D5FFF705FD401B0228F6D9032028E056
:10085000164BDA6A0F218A43E16A0A43DA625A6860
:1008600015490A40A16A606A01430A435A6019683F
:10087000802252040A431A60FFF7EAFC04000B4B83
:100880001B689B0106D4FFF7E3FC001B0228F6D986
:10089000032006E0002004E0002002E0012000E048
:1008A000002002B070BD0120FBE7C04600100240EE
:1008B000FFFFFFFEFFFFFFEFFFFFC2FF30B589B074
:1008C00004AA174B180032C832C2110002680A602D
:1008D0006A46103313CB13C21B681360114B5A685E
:1008E0000C231340082B19D1910C0733194004A88D
:1008F000445C0C49C96A0B406946C95CD30308D4FF
:1009000063011B1B9801C01AC0000419200209B022
:1009100030BD0548FFF7F8FB6043F8E70248F6E70B
:10092000342300080010024000127A0070B5050060
:100930000C004D4B1A68012313408B420BD24A49DD
:100940000B680122934323430B600B681A40A242B9
:1009500001D0012070BD2B689B0706D5434A536820
:10096000F0218B43A9680B4353602B68DB074BD501
:100970006B68012B20D0022B24D03C4A12689207CE
:100980006FD53A494A680320824313434B60FFF70F
:100990005FFC06006B68012B1AD0022B26D0334B6C
:1009A0005B680C221A422FD0FFF752FC801B304BA1
:1009B0009842F4D90320CDE72C4A12689203E0D480
:1009C0000120C7E7294A12689201DAD40120C1E761
:1009D000264B5A680C231340042B15D0FFF738FC24
:1009E000801B234B9842F3D90320B3E71F4B5A686F
:1009F0000C231340082B07D0FFF72AFC801B1C4B4D
:100A00009842F3D90320A5E7174B1A680123134036
:100A1000A3420BD914490B680122934323430B6073
:100A20000B681A40A24201D0012093E72B685B07B4
:100A300006D50E4A53680F490B40E9680B435360D3
:100A4000FFF73CFF094B5A6812090F2313400A4A6B
:100A5000D35CD840094B1860002001F089FB0020CE
:100A600078E7012076E7C0460020024000100240EF
:100A700088130000FFF8FFFF902300080400002007
:100A8000014B18687047C0460400002010B5FFF7FE
:100A9000F7FF044B5A68120A07231340024AD35C3B
:100AA000D84010BD00100240A023000810B5072355
:100AB00003600A4B5C680322224042605C68F022BB
:100AC000224082605B68E022D2001340C360044B86
:100AD0001A68012313400B6010BDC046001002408D
:100AE0000020024070470368DA6801210A43DA6097
:100AF000026813680B43136000207047704770470B
:100B00007047704710B5040003681A6992070FD543
:100B1000DA6892070CD5032252421A610123037747
:100B200003689B699B0763D0FFF7E9FF00232377E6
:100B300023681A69520712D5DA6852070FD50522C1
:100B400052421A610223237723689A69C0239B00CB
:100B50001A4253D02000FFF7D2FF002323772368E7
:100B60001A69120710D5DA6812070DD50922524208
:100B70001A61042323772368DB699B0745D0200093
:100B8000FFF7BDFF0023237723681A69D20612D529
:100B9000DA68D2060FD5112252421A610823237750
:100BA0002368DA69C0239B001A4235D02000FFF782
:100BB000A6FF0023237723681A69D20702D5DA68D3
:100BC000D20730D423681A69120602D5DA681206F1
:100BD00030D423681A69520602D5DA68520630D436
:100BE00023681A69920602D5DA68920630D410BDDD
:100BF000FFF784FF2000FFF783FF97E72000FFF750
:100C00007DFF2000FFF77CFFA7E72000FFF776FFBE
:100C10002000FFF775FFB5E72000FFF76FFF20000A
:100C2000FFF76EFFC5E7022252421A61200001F071
:100C300043FAC7E7812252421A61200000F075F89A
:100C4000C7E7412252421A612000FFF75AFFC7E767
:100C5000212252421A61200000F066F8C7E7000026
:100C600003681D4A904202D01C4A904203D1702270
:100C700093434A681343184A90420ED0174A904251
:100C80000BD0174A904208D0164A904205D0164A17
:100C9000904202D0154A904203D1154A1340CA68C7
:100CA0001343802293434A69134303608B68C362F2
:100CB0000B688362084B984208D00A4B984205D0D3
:100CC000094B984202D0094B984201D10B6903634A
:100CD000012343617047C046002C014000040040DE
:100CE0000020004000400140004401400048014015
:100CF000FFFCFFFF70B5041E14D03D23C35C002B26
:100D00000AD03D2502236355211D2068FFF7A8FF67
:100D100001236355002070BD3C330022C254FFF70D
:100D2000E1FEEEE70120F6E77047704770B504007A
:100D300083680269134342691343C269134301681C
:100D40000A686048024013430B60226853685E499A
:100D50000B40E1680B435360A269236A1A43216880
:100D60008B685A48034013438B602568584B9D425B
:100D700020D0584B9D4231D0102380221202E169CD
:100D800091422FD0022B00D180E000D86EE0042BDE
:100D900000D187E0082B00D092E0616848088023EA
:100DA0001B029C466044FFF7AFF90004000CE860AA
:100DB000002040E0484B1A6B03231340012B09D05D
:100DC000002B05D0022B07D0032B09D01023D4E72A
:100DD0000023D2E70423D0E70823CEE70023CCE7A3
:100DE0000223CAE7022B27D00FD9042B2FD0082BC0
:100DF00039D16368580880235B029C46604461686F
:100E0000FFF782F983B200200CE0002B2BD1FFF713
:100E10003DFE400063685B08C0186168FFF774F925
:100E200083B200200F22190091435B10083A13404F
:100E30000B432268D36070BD63685808274B9C46FB
:100E400060446168FFF760F983B20020EAE7FFF7CA
:100E500035FD400063685B08C0186168FFF754F90E
:100E600083B20020DEE701200023DBE7002B27D13F
:100E7000FFF70CFE63685B08C0186168FFF744F970
:100E800023680004000CD8600020D4E7616848089B
:100E9000134B9C466044FFF737F90004000CE860F0
:100EA0000020C8E7FFF70AFD63685B08C0186168A7
:100EB000FFF72AF923680004000CD8600020BAE785
:100EC0000120B8E7F369FFFFFFCFFFFFFFF4FFFF4B
:100ED0000038014000440040001002400024F400AB
:100EE00000127A00436ADB0706D5026853682C4972
:100EF0000B40816A0B435360436A9B0706D5026827
:100F0000536828490B40C16A0B435360436A5B072F
:100F100006D50268536824490B40016B0B435360AC
:100F2000436A1B0706D50268536820490B40416B92
:100F30000B435360436ADB0606D5026893681C497D
:100F40000B40816B0B439360436A9B0606D5026896
:100F5000936818490B40C16B0B439360436A5B066F
:100F60000BD50268536814490B40016C0B43536066
:100F700080235B03026C9A420AD0436A1B0606D5A3
:100F8000026853680D490B40816C0B4353607047F6
:100F9000026853680A490B40416C0B435360ECE70D
:100FA000FFFFFDFFFFFFFEFFFFFFFBFFFF7FFFFFD8
:100FB000FFEFFFFFFFDFFFFFFFFFEFFFFFFFF7FF89
:100FC000FFFF9FFF0023C3662022692142540131A5
:100FD00042544832835400207047000010B5041E6C
:100FE00030D06923C35C002B22D069232422E25431
:100FF0002268136801218B4313602000FFF796FEDF
:10100000012814D0636A002B18D1226853680E4956
:101010000B4053602268936808218B4393602268D9
:10102000136807390B4313602000FFF7CBFF10BD97
:1010300068330022C25401F069F8D6E72000FFF7B8
:1010400051FFE2E70120F2E7FFF7FFFF842801D01C
:10105000033070470020FCE710B500F037FB00209C
:1010600010BDF0B585B00D00466807680469082317
:10107000C05EFFF7EBFFA2B203AB019300902B0021
:101080003900300000F0F2FA012802D1039805B0CF
:10109000F0BD0020FBE710B5002800D1013000F0C2
:1010A00029FC002010BD10B501290DD1032200211B
:1010B000012000F01EF9041E04D0002300220021AC
:1010C00000F036F9200010BD0024FBE703000833D0
:1010D0004360012252428260C360036100230360C7
:1010E000704700230361704743684B609A688A60C9
:1010F0009A68516099600861036801330360704722
:1011000030B50C68631C02D00200083202E00269AC
:1011100004E01A0053681D68A542FAD953684B6071
:1011200099608A605160086103680133036030BDD3
:1011300003694268816891608268416851605A68B9
:10114000824205D0002202611A68501E1860704762
:1011500082685A60F6E710B5040000F079FDA26BD2
:10116000E36B9A4204D0002400F07EFD200010BD05
:101170000124F9E770B504001600856B026C002AA3
:101180000CD10368002B03D000200135A56370BD8E
:10119000406800F0DFFC00236360F6E7002E0ED10C
:1011A000806801F0A9F8A368226C94466344A360A8
:1011B000626893421BD32368A3600020E5E7C06800
:1011C00001F09AF8236C5A42E3689B18E3602168A7
:1011D0008B4203D263689C466244E260022E01D0D7
:1011E0000020D2E7002D04D0013D0020CDE70020F3
:1011F000CBE70020C9E770B5050000F029FD4523C5
:10120000EC5C64B203E000F08DFC013C64B2002CA5
:1012100009DD6B6A002B06D02800243000F008FCA2
:101220000028F2D0EFE74523FF22EA5400F01CFD2E
:1012300000F00EFD4423EC5C64B203E000F072FCAD
:10124000013C64B2002C09DD2B69002B06D028007C
:10125000103000F0EDFB0028F2D0EFE74423FF222E
:10126000EA5400F001FD70BD70B504000D000028C7
:1012700001D172B6FEE700F0EBFC2268E36B206C54
:1012800001005943511861600021A163A260013B34
:101290004343D318E360FF234422A3540132A354F1
:1012A000002D0FD12369002B03D100F0DDFC0120BC
:1012B00070BD2000103000F0BBFB0028F5D000F01E
:1012C000BBFCF2E720001030FFF700FF20002430C5
:1012D000FFF7FCFEE9E710B5029B002907D01A6072
:1012E000D863196401211800FFF7BEFF10BD1B6011
:1012F000F6E7F0B583B006000F001500002801D115
:1013000072B6FEE7002902D00800704300E000201A
:10131000483000F077FD041E07D0020048320090EC
:101320002B0039003000FFF7D6FF200003B0F0BDDE
:10133000F0B585B004000F0001921D00002806D012
:10134000002906D1036C002B03D072B6FEE772B6FB
:10135000FEE7022D04D1E36B012B01D072B6FEE74C
:1013600000F0E6FB002804D1019B002B03D072B6ED
:10137000FEE7002631E000262FE02A003900200099
:10138000FFF7F8FE636A002B04D100280AD000F0B2
:1013900053FC07E02000243000F04AFB002801D075
:1013A00000F04AFC00F060FC012005B0F0BD00F048
:1013B0005BFC0020F9E702A800F076FB013619E09B
:1013C00044230022E25420E045230022E25421E09D
:1013D0002000FFF710FF00F023FA00F039FCA36BA8
:1013E000E26B9342C9D3022DC7D0019B002BDED004
:1013F000002EE0D000F038FC00F092F900F028FC5C
:101400004423E35C5BB20133DAD04523E35C5BB297
:101410000133D9D000F028FC01A902A800F050FB4C
:10142000002813D12000FFF796FE0028D0D020001E
:101430001030019900F0EAFA2000FFF7DCFE00F01E
:10144000EFF90028C9D100F0F7FBC6E72000FFF74D
:10145000D2FE00F0E5F90020A7E70000084B9B6AE8
:101460001B68002B06D0064B9A6AD268D268526875
:10147000DA627047024B01225242DA62F9E7C04653
:101480002400002010B50400006B00F01FFD2000B8
:1014900000F01CFD10BD0000F0B583B0009001937A
:1014A000089C0A9E1D4B9C4662449200336B9C46EE
:1014B000624407239A43170000230F2B09D8C8184A
:1014C0000578F218343215700278002A01D0013301
:1014D000F3E743230022F254062C00D90624F462D9
:1014E00074640025B564301DFFF7FBFD3000183033
:1014F000FFF7F7FD366107231C1BB4617662F564C4
:101500004933F554019A0099380000F083FB3060AC
:10151000099B002B00D01E6003B0F0BDFFFFFF3F12
:1015200070B5002407E0A3001B1998000F4BC018EA
:10153000FFF7CCFD0134062CF5D90D4C26003036D2
:101540003000FFF7C3FD250044352800FFF7BEFD3E
:1015500020001430FFF7BAFD20005830FFF7B6FD29
:101560002000FFF7B3FDA662E56670BDC400002051
:101570002400002010B5040000F06AFB1F4B1A6F16
:1015800001321A675B6F002B0CD01C4B9B6F002B3A
:101590000DD11A4B5B6FDB6AE26A934207D8174B97
:1015A0005C6704E0154B5C671B6F012B1FD0134A6F
:1015B000D36F0133D367E26A114B1B689A4201D99A
:1015C0000F4B1A60211D93009B1898000D4BC018FB
:1015D000FFF78AFD00F048FB084B9B6F002B05D0FE
:1015E000064B5B6FDA6AE36A9A4203D310BDFFF7DA
:1015F00097FFDCE700F020FBF8E7C046240000205E
:10160000A4000020C400002070B504000D00154B9C
:101610005E68154B586F0430FFF78AFD631C11D0CC
:101620003419114B5B6F5C60A64213D80E4DA86A4B
:10163000696F0431FFF764FDEB6AA34210D90A4BCE
:10164000DC620DE0002DEBD00748416F0431FFF75D
:101650004BFD05E0044BD86E596F0431FFF750FD88
:1016600070BDC046A400002024000020F0B587B063
:101670000490059114001F00900000F0C3FB061EAB
:101680001ED0542000F0BEFB051E15D00663002DB1
:1016900019D00023039302950D9B01930C9B00939B
:1016A0003B00220005990498FFF7F6FE2800FFF79B
:1016B00061FF012007B0F0BD300000F007FCE6E755
:1016C00001204042F6E701204042F3E700B583B035
:1016D0000F4B103301930023009380220D490E48D5
:1016E000FFF7C4FF012803D0431C0ED003B000BD98
:1016F00072B60A4B01225242DA6202329A67044BF6
:1017000000225A6000F014FBF0E772B6FEE7C04614
:10171000A4000020A8230008751900082400002058
:10172000024AD3680133D3607047C046A40000204A
:10173000F8B5384BDB68002B60D1364B5D6801355E
:101740005D60002D11D1344B9B6A1B68002B01D0CA
:1017500072B6FEE7304B9A6AD96E9962DA662D4A04
:10176000536901335361FFF779FE2B4BDB6AAB42C0
:101770003AD90024284B5B6FDA6A93009B189A00D1
:10178000264BD358012B3ED901243CE00124224BA7
:101790009B6A1B68002B29D01F4B9B6ADB68DE68A5
:1017A00073689D4227D3371D3800FFF7C1FCB36A29
:1017B000002B03D030001830FFF7BAFCF26A154B4B
:1017C0001B689A4201D9134B1A6093009B1898002A
:1017D000124BC0183900FFF787FCF26A0E4B5B6FA3
:1017E000DB6A9A42D2D2D2E70024D0E70A4B012228
:1017F0005242DA62BEE7084AD362BBE7054A936900
:10180000013393610024034BDB69002B00D00124DA
:101810002000F8BDA400002024000020C400002007
:1018200070B5314BDB68002B01D172B6FEE700F0DA
:101830000FFA2D4BDA68013ADA60DB68002B4ED1E3
:101840002A4B1B6F002B04D1002400F00DFA20005E
:1018500070BD0024254B5B69002B23D0234B1B6AF2
:10186000DC6820001830FFF763FC251D2800FFF717
:101870005FFCE26A1C4B1B689A4201D91A4B1A6042
:1018800093009B1898001A4BC0182900FFF72CFCF6
:10189000164B5B6FDB6AE26A9A42DBD3124B012282
:1018A000DA61D7E7002C01D0FFF7D8FD0E4B9C6919
:1018B000002C0CD0FFF73CFF002802D00A4B01227D
:1018C000DA61013C002CF5D1074B00229A61064BEE
:1018D000DB69002B05D000F0AFF90124B5E7002447
:1018E000B3E70024B1E7C046A40000202400002094
:1018F000C400002010B5041E0FD0094BDB68002B7C
:1019000001D072B6FEE7FFF70BFF00212000FFF7C2
:101910007BFEFFF785FF002801D100F08DF910BD97
:10192000A400002070B5114B9B68002B1CD0FFF762
:10193000F7FE0F4B9C6DFFF773FF002CF3D000F008
:1019400087F90B4C636EDD68281DFFF7F1FB236FF1
:10195000013B2367054A9368013B936000F084F9DB
:101960002800FFF78FFDDEE770BDC046A400002011
:101970002400002010B5FFF7D5FF034B1B68012B97
:10198000F9D900F059F9F6E7C400002030B51C4B36
:10199000DB68002B03D01A4B0122DA6130BD184BF3
:1019A0000022DA611B689A00D2189100154A8A5801
:1019B000002A05D1002B01D0013BF4E772B6FEE707
:1019C000104D9900CA189000281842685468446065
:1019D000C9188A000832521994420BD09A00D218C2
:1019E0009100084A52185268D168074A5167044A60
:1019F0001360D3E76068142159436A185060EDE71B
:101A0000A4000020C40000202400002010B50C0019
:101A1000002801D172B6FEE7044B596F1831FFF769
:101A20006FFB01212000FFF7EFFD10BD2400002017
:101A300070B5C368DC68002C01D172B6FEE72500E2
:101A400018352800FFF774FB144BDB68002B1DD101
:101A5000251D2800FFF76CFBE26A104B1B689A42B9
:101A600001D90E4B1A6093009B1898000C4BC018BC
:101A70002900FFF739FBE26A0A4B5B6FDB6A9A4287
:101A80000AD9064B0122DA61012070BD0548290000
:101A90001430FFF729FBEEE70020F6E7A400002052
:101AA000C400002024000020002805D0034B5A6900
:101AB00002605B684360704772B6FEE7A4000020D6
:101AC00070B504000D00002803D0002903D172B6C0
:101AD000FEE772B6FEE700F0BBF8114B59682B68C1
:101AE0005A1C18D00E4A52692068904202D062688F
:101AF0008A4212D96268881A834204D8012400F00D
:101B0000B3F8200070BD521A9B182B602000FFF71D
:101B1000CBFF0024F3E70024F1E70124EFE7C04600
:101B2000A4000020014B0122DA617047A4000020CC
:101B3000064B9B6F002B07D0054BDB68002B01D0B9
:101B4000002002E0022000E0012070472400002075
:101B5000A400002070B5041E2AD0184B5B6F83428E
:101B600001D072B6FEE7836C002B01D172B6FEE79E
:101B7000013B8364C26A416C8A421BD0002B1BD19B
:101B8000051D2800FFF7D4FA636CE3620722D21A1E
:101B9000A2610B4A1268934201D9094A13601420CA
:101BA0005843084BC0182900FFF79EFA012000E0B7
:101BB000002070BD0020FCE70020FAE72400002090
:101BC000A4000020C4000020034B1B68013301D097
:101BD00072B6FEE772B6FEE70000002000000000CB
:101BE0000B4A13681868203080F30988022080F3BC
:101BF0001488BFF36F8F3FBCAE4608BC04BC62B60E
:101C00001847C046C046C046C046C046C046C0464B
:101C10009800002010B5031F802464041C60043B5E
:101C20001960043B02491960143B1A60403810BD2A
:101C3000C91B000870470000044B802252051A603F
:101C4000BFF34F8FBFF36F8F7047C04604ED00E0C6
:101C500072B6044A136801331360BFF34F8FBFF3AA
:101C60006F8F704700000020064B1B68002B01D1CE
:101C700072B6FEE7013B034A1360002B00D162B647
:101C80007047C04600000020EFF3108072B6704726
:101C9000002080F310887047000000000000000062
:101CA000EFF309800E4B1A6820381060F0C04446EC
:101CB0004D4656465F46F0C008B572B6FFF766FE61
:101CC00062B60CBC116808681030F0C8A046A9467E
:101CD000B246BB4680F309882038F0C81847C04692
:101CE0009800002010B5FFF7CFFF0400FFF720FD9C
:101CF000002803D0034B802252051A602000FFF712
:101D0000C8FF10BD04ED00E010B5064B1868FA21BD
:101D10008900FEF7F9F90138034B1860034B0722DD
:101D20001A6010BD0400002014E000E010E000E0A4
:101D300010B50A4B1968FF2212040A431A60196889
:101D4000FF2212060A431A60FFF7DEFF044B00224F
:101D50001A60FFF745FFFFF737FFC04620ED00E0B0
:101D60000000002010B5114A53071BD0D11D0723D6
:101D70009943C0231B015B1A9B180A000C490A6097
:101D800000204860D318083B0724A3438B605860A9
:101D90001860981A50601360C860086180231B06A1
:101DA0004B6110BDC0231B01E8E7C046680100205D
:101DB0005001002010B5124B1A68824219D359689D
:101DC0005C18844203D140680918596018004168C2
:101DD0004418A24211D10A4CA468A2420BD0526806
:101DE000891841601A6812680260984200D0186031
:101DF00010BD1300E0E70460F7E70260F5E7C046B6
:101E00005001002070B50400FFF78AFC2E4B9B6840
:101E1000002B0FD02C4B5B6923424AD1002C0CD0F5
:101E20000834630709D007239C430834234204D0B5
:101E300072B6FEE7FFF796FFECE7002C3BD0224B93
:101E40001B69A34239D3204B1D6801E02B0015000C
:101E50006A68A24202D22A68002AF7D11A4A926816
:101E6000AA422CD01E6808362A681A606B681B1BB1
:101E7000102B08D92819420701D072B6FEE743603B
:101E80006C60FFF797FF69680F4A13695B1A13616B
:101E9000D268934201D20C4AD3600B4B5B690B436F
:101EA0006B6000232B60FFF7BBFC730709D072B691
:101EB000FEE70026F7E70026F5E70026F3E7002611
:101EC000F1E7300070BDC0465001002070B5002819
:101ED00020D00500083D6B680F4A52691A4201D1B3
:101EE00072B6FEE7010008390968002901D072B610
:101EF000FEE70838040093434360FFF711FC636872
:101F0000054A11698C46634413612800FFF752FFAC
:101F1000FFF786FC70BDC0465001002030B589B087
:101F20001422002103A800F0F0F9184B5969802011
:101F30000003014359615A6902400192019A5A69AA
:101F4000802189020A435A615B690B400293029B1C
:101F50009025ED05002220212800FEF77FFA80233E
:101F60009B01039300240494059403A90848FEF7F9
:101F7000AFF9202303931F3B04930594069403A910
:101F80002800FEF7A5F909B030BDC0460010024098
:101F90000008004810B50948094B0360E1235B02C3
:101FA000436000238360C36003610C22426183614C
:101FB000C36103624362FFF711F810BD740D002086
:101FC0000044004010B50120FFF765F8FBE710B5AD
:101FD0000120FFF760F8FBE710B50120FFF75BF881
:101FE000FBE710B590B02C22002105A800F08DF978
:101FF00010220021684600F088F90224049401238D
:1020000007930F3308930C94A0239B030E9304A80B
:10201000FEF72AFA07230093019400230293039307
:1020200001216846FEF782FC10B010BD70B590B07B
:10203000FEF7F6F8FFF7D5FFFFF770FFFFF7AAFFEF
:1020400000230F9301210FA8FFF72DF8154B1860FF
:102050000AA8154C0300220062CA62C322CA22C326
:102060000021FEF7FEFF114B186005A802002300B7
:10207000143362CB62C222CB22C20021FEF7F1FFF1
:102080000B4B18606846020028342ACC2AC20ACCBE
:102090000AC20021FEF7E5FF064B1860FEF7DCFFE1
:1020A000FEE7C046E40D0020542300086C0D00201C
:1020B000E80D0020700D002010B50268034B9A4215
:1020C00000D010BDFEF7BCF8FBE7C046000400409E
:1020D00000B583B00C4B996901221143996199694C
:1020E0000A400092009ADA69802149050A43DA61C0
:1020F000DB690B400193019B022000220321404237
:10210000FEF7ACF803B000BD0010024010B588B077
:1021100004001422002103A800F0F7F82268124BF3
:102120009A4201D008B010BD104BD96980229202AA
:102130001143D961D969114001910199596911433C
:1021400059615B691A400292029B0C2303930A3B7C
:10215000049301330693023B0793902003A9C00523
:10216000FEF7B6F8DEE7C04600440040001002402B
:1021700000B587B0010000221020FEF76FF8102094
:10218000FEF79CF8134AD16902231943D161D26941
:1021900013400093009B01A902A8FEF787FCFEF7FD
:1021A00075FC0D49FDF7B0FF431E0C480C4A026058
:1021B0000C4AC2604360002303618360FEF79AFD0E
:1021C000002802D0012007B000BD0448FEF78BFCB8
:1021D000F9E7C0460010024040420F00EC0D00201D
:1021E00000040040E70300007047FEE710B5024816
:1021F000FEF788FC10BDC046EC0D0020114B1A689C
:1022000001210A431A605A680F4802405A601A684E
:102210000E4802401A601A680D4802401A605A6857
:102220000C4802405A60DA6A0F208243DA621A6B65
:10223000094802401A635A6B8A435A6300229A6023
:102240007047C046001002400CB8FF08FFFFF6FEC2
:10225000FFFFFBFFFFFFC0FFECFEFFFF0D488546C1
:102260000D480E490E4A002302E0D458C4500433EE
:10227000C4188C42F9D30B4A0B4C002301E01360C5
:102280000432A242FBD3FFF7B9FF00F011F8FFF7C9
:10229000CDFEFEE700200020000000200800002006
:1022A000D4230008080000202C0E0020FEE70000C8
:1022B00070B500260C4D0D4C641BA410A64209D12C
:1022C000002600F02BF80A4D0A4C641BA410A6420D
:1022D00005D170BDB300EB5898470136EEE7B30067
:1022E000EB5898470136F2E7CC230008CC230008CE
:1022F000CC230008D0230008002310B59A4200D157
:1023000010BDCC5CC4540133F8E7030012189342AB
:1023100000D1704719700133F9E70000F8B5C046E5
:10232000F8BC08BC9E467047F8B5C046F8BC08BC6F
:042330009E4670470E
:1023340002030405060708090A0B0C0D0E0F101002
:102344000102030405060708090A0B0C0D0E0F1001
:10235400C4230008C51F000800000000000000009E
:1023640080000000BC230008CF1F00080300000009
:102374000000000080000000B0230008D91F0008FE
:1023840002000000000000008000000000000000C7
:102394000000000001020304060708090000000011
:1023A4000102030449444C45000000004750535FB8
:1023B40056616C756500000073656E736F72000082
:0823C4006D6F746F72000000E0
:0423CC00E90000081C
:0423D000C100000840
:0823D400AAAAAAAA00127A00CD
:040000050800225D70
:00000001FF
