:020000040800F2
:1000000000200020B52F0008412E0008432E0008D4
:1000100000000000000000000000000000000000E0
:10002000000000000000000000000000F5240008AF
:10003000000000000000000061250008A525000860
:1000400005300008000000000530000805300008F9
:1000500005300008CD2C00080530000805300008E8
:10006000000000000530000805300008452E00089B
:1000700005300008053000080530000800000000C9
:10008000552E00080530000800000000053000086B
:10009000053000080530000805300008053000086C
:1000A000053000080530000805300008053000085C
:1000B0000530000800000000000000000000000003
:1000C00010B5064C2378002B07D1054B002B02D02E
:1000D000044800E000BF0123237010BDE0000020B1
:1000E00000000000A4300008044B10B5002B03D022
:1000F0000349044800E000BF10BDC04600000000F6
:10010000E4000020A4300008002243088B4274D38E
:1001100003098B425FD3030A8B4244D3030B8B4208
:1001200028D3030C8B420DD3FF22090212BA030C11
:100130008B4202D31212090265D0030B8B4219D3F2
:1001400000E0090AC30B8B4201D3CB03C01A524112
:10015000830B8B4201D38B03C01A5241430B8B425A
:1001600001D34B03C01A5241030B8B4201D30B0343
:10017000C01A5241C30A8B4201D3CB02C01A52416A
:10018000830A8B4201D38B02C01A5241430A8B422D
:1001900001D34B02C01A5241030A8B4201D30B0216
:1001A000C01A5241CDD2C3098B4201D3CB01C01A30
:1001B000524183098B4201D38B01C01A524143093A
:1001C0008B4201D34B01C01A524103098B4201D328
:1001D0000B01C01A5241C3088B4201D3CB00C01A95
:1001E000524183088B4201D38B00C01A524143080D
:1001F0008B4201D34B00C01A5241411A00D2014632
:10020000524110467047FFE701B5002000F006F8A4
:1002100002BDC0460029F7D076E770477047C04658
:1002200010B5064A136810210B431360002002F03A
:10023000CBFD02F05FFD002010BDC0460020024053
:10024000024A1368013313607047C046480E00200D
:10025000014B18687047C046480E002070B5002852
:1002600011DB8408134DC034A400625903231840E5
:10027000C000FC331E008640B24389010B4083401E
:100280001343635170BDC0B20F220240083A920876
:1002900006329200084BD3185D6803242040C0004A
:1002A000FF2214008440A54389010A4082402A436A
:1002B0005A60E7E700E100E000ED00E01F2318408E
:1002C0001E3B8340014A13607047C04600E100E0D6
:1002D00070B5C56B0124066CB4406C600468636043
:1002E0004368102B04D0036899600368DA6070BD1E
:1002F00003689A600368D960F9E7000010B504004C
:100300000368064A9446634418001421FFF7FCFE74
:1003100080002064024BE36310BDC046F8FFFDBFC0
:100320000000024070B5041E24D02125022343554D
:1003300001680B68104A1A40436880680343E0680C
:1003400003432069034360690343A0690343E069F1
:10035000034313430B602000FFF7D0FF0023A36289
:10036000E36223636363A363012262551F32A354D4
:10037000002070BD0120FCE70FC0FFFF70B5040036
:100380002020205C012832D0202001252554013076
:10039000205C012804D020230022E254022070BDFA
:1003A0002030013525540020A063256828680126E7
:1003B000B04328602000FFF78BFFE36A002B0BD0CF
:1003C000226813680E210B43136022681368012111
:1003D0000B4313600020E2E7226813680A210B43F5
:1003E00013602268136806398B431360EDE702201F
:1003F000D5E770B5C36B1A6804682568016C0423DF
:100400008B401A4212D06B0710D523689B0603D489
:100410002368042293432360C26B0423016C8B4046
:100420005360C36A002B00D0984770BD02238B40F5
:100430001A4218D0AB0716D523689B0606D423684A
:100440000A22934323602123093AC254C26B022338
:10045000016C8B40536020230022C254836A002B1E
:10046000E3D09847E1E708238B401A42DDD02B0701
:10047000DBD523680E2293432360C26B012319004E
:10048000046CA14051608363212283541F330022F6
:10049000C254036B002BC8D09847C6E710B5054B74
:1004A0000022DA61044A13690124234313610180A5
:1004B00010BDC046500E0020002002400C4BDB68EF
:1004C000DB0613D50B4AD36902210B43D3611023FA
:1004D000074AD268520706D50649CA690120024375
:1004E000CA6104221343024AD36070470023EFE736
:1004F00000200240500E0020084B1B691B060BD544
:10050000064B074A5A60074A5A601B691B0601D509
:10051000012002E0002000E000207047002002409F
:1005200023016745AB89EFCD034A136980210B4353
:10053000136100207047C0460020024070B50400DF
:10054000FFF786FE0500134BDB68DB070AD5631C4B
:10055000F9D0002C19D0FFF77BFE401BA042F2D946
:10056000032011E00B4BDB689B0602D5094B2022D0
:10057000DA60084BDB68DB0603D4064BDB685B07FD
:1005800005D5FFF79BFF012070BD0320FCE700208D
:10059000FAE7C04600200240F0B5C64600B50400A8
:1005A0000D0090461E00214B1B7E012B3BD01F4BA4
:1005B00001221A761E48FFF7C1FF00282DD1012C19
:1005C00006D0022C02D0042700241BE00227FBE700
:1005D0000127F9E72022D21A310091400A00414652
:1005E000D940114389B24019FFF758FF1048FFF76F
:1005F000A5FF104A136901218B43136100280CD118
:100600000134E4B2BC4208D26000230120225242ED
:100610009A18DFD43100D140E4E7044B00221A7667
:1006200004BC9046F0BD0220FAE7C046500E002000
:1006300050C3000000200240064B0022DA61064B46
:100640001A6904210A431A611A693C310A431A6182
:100650007047C046500E002000200240064B00228A
:10066000DA61064B1A6902210A431A6158611A6954
:100670003E310A431A617047500E002000200240AC
:1006800070B505000E00244B1B7E012B41D0224B80
:1006900001221A760368012B22D02048FFF74EFF73
:1006A000002831D101235B4233606C680130AB68B4
:1006B0009B026A6894466344A34226D92000FFF750
:1006C000CDFF1648FFF73AFF154A136902218B4305
:1006D0001361002816D18023DB009C466444E6E7C2
:1006E0000E48FFF72BFF002801D001200DE0FFF797
:1006F000A3FF0A48FFF722FF094A136904218B432D
:10070000136102E0346000E00120034B00221A76FE
:1007100070BD0220FCE7C046500E002050C3000010
:1007200000200240F0B5C64600B582B0002338E094
:10073000032600E00026AE4035003D430234A4000D
:10074000554EA551554C25684246D4432E002640AF
:100750004A68D20302D5424615432E004F4D2E6003
:100760006D682E0026404A68920302D54246154322
:100770002E004A4D6E60AD682E0026404A68D202B7
:1007800002D5424615432E00444DAE60ED682C4024
:100790004A68920202D542462A4314003F4AD46076
:1007A00001330A681400DC4071D001259D402A40C5
:1007B0009046F5D04C68022C01D0122C0ED1DC08EA
:1007C0000834A400275807261E40B6000F22B24066
:1007D00097430A69B24016003E43265002685F0004
:1007E00003242600BE40F643324094464A68144033
:1007F000BC406246144304604C68621E012A03D95F
:10080000112C01D0122C10D184683440A446CC683D
:10081000BC406246144384604468AC434A68120991
:10082000012515409D4025434560C46826408C68DD
:10083000BC403443C4604A68D200B1D5184DAE699B
:1008400001242643AE61AD692C400194019C9C08B3
:10085000A51CAD00104EAF5903251D40AD000F265D
:10086000AE40B7439026F605B04200D162E70D4E88
:10087000B04208D00C4EB04207D00C4EB04200D16E
:1008800056E7052657E7012655E7022653E702B04B
:1008900004BC9046F0BDC046000001400004014089
:1008A000001002400004004800080048000C004806
:1008B00003690B4201D1002070470120FCE7002AA8
:1008C00001D1816270478161FCE743695940416110
:1008D0007047704710B5054B5B69184200D110BDD9
:1008E000024B5861FFF7F5FFF9E7C04600040140ED
:1008F00070B582B004000368DB0726D5AE4B5A689A
:100900000C231340042B18D0AB4B5A680C23134014
:10091000082B0ED06368012B3CD0002B51D1A64B85
:100920001A68A6490A401A601A68A5490A401A605E
:1009300036E0A14B5B68DB03ECD59F4B1B689B0348
:1009400003D56368002B00D1ECE123689B0773D5C6
:10095000994B5B680C221A425DD0974B5A680C2366
:100960001340082B53D0E368002B00D186E0924A55
:10097000136801210B431360FFF76AFC05008E4BDF
:100980001B689B0771D4FFF763FC401B0228F6D954
:100990000320CAE1884A116880235B020B4313607D
:1009A0006368002B25D0FFF753FC0500824B1B68C2
:1009B0009B03CAD4FFF74CFC401B6428F6D90320E4
:1009C000B3E1052B09D07C4B1A687C490A401A60B8
:1009D0001A687B490A401A60E2E7774B196880225F
:1009E000D2020A431A601968802252020A431A602E
:1009F000D6E7FFF72DFC05006F4B1B689B03A4D5C2
:100A0000FFF726FC401B6428F6D903208DE16A4BD2
:100A10005B68DB03A7D4684B1B689B0704D5E368BE
:100A2000012B01D0012080E163490B68F822934338
:100A30002269D20013430B6023681B0744D5E36986
:100A4000002B2ED05C4A536A01210B435362FFF7FF
:100A5000FFFB0500584B5B6A9B0735D4FFF7F8FB9B
:100A6000401B0228F6D903205FE153490B68F822A6
:100A700093432269D20013430B60DDE74E4A1368AB
:100A800001218B431360FFF7E3FB05004A4B1B6812
:100A90009B07D1D5FFF7DCFB401B0228F6D90320CA
:100AA00043E1454A536A01218B435362FFF7D0FB70
:100AB0000500414B5B6A9B0706D5FFF7C9FB401B4E
:100AC0000228F6D9032030E123685B0700D47FE0D9
:100AD000394BDB69DB001DD4374AD16980204005E2
:100AE0000143D161D36903400193019B0125354B3B
:100AF0001B68DB0510D5A368012B21D0002B36D154
:100B00002D4B1A6A01218A431A621A6A03318A43F9
:100B10001A621AE00025EAE72A4A116880235B007E
:100B20000B431360FFF794FB0600264B1B68DB05A5
:100B3000E1D4FFF78DFB801B6428F6D90320F4E095
:100B40001D4A136A01210B431362A368002B24D0B2
:100B5000FFF77EFB0600184B1B6A9B0736D4FFF796
:100B600077FB801B184B9842F5D90320DDE0052B5D
:100B700009D0114B1A6A01218A431A621A6A033199
:100B80008A431A62E1E70C4B1A6A04210A431A628B
:100B90001A6A03390A431A62D7E7FFF759FB0600BE
:100BA000054B1B6A9B0711D5FFF752FB801B064BB9
:100BB0009842F5D90320B8E000100240FFFFFEFF85
:100BC000FFFFFBFF0070004088130000012D33D0B1
:100BD0002368DB0610D56369012B33D0053351D16F
:100BE000544A536B04218B435363536BF4318B434F
:100BF000A169C9000B435363236A002B00D193E022
:100C00004C4A51680C220A40082A00D18FE0022B7E
:100C10004FD0484A136848490B401360FFF718FB50
:100C20000400444B1B689B017AD5FFF711FB001BA6
:100C30000228F6D9032078E03E4AD3693F490B40A9
:100C4000D361C5E73B4B5A6B04210A435A635A6B85
:100C500003390A435A63FFF7FBFA0500354B5B6B18
:100C60009B0706D4FFF7F4FA401B0228F6D90320AD
:100C70005BE030494B6BF8229343A269D2001343E7
:100C80004B63B9E72B4B5A6B04210A435A635A6BE7
:100C900003398A435A63FFF7DBFA0500254B5B6B88
:100CA0009B07A9D5FFF7D4FA401B0228F6D90320E9
:100CB0003BE0204A136820490B401360FFF7C8FA55
:100CC00005001C4B1B689B0106D5FFF7C1FA401BB2
:100CD0000228F6D9032028E0164BDA6A0F218A434E
:100CE000E16A0A43DA625A6815490A40A16A606AF1
:100CF00001430A435A601968802252040A431A6069
:100D0000FFF7A6FA04000B4B1B689B0106D4FFF704
:100D10009FFA001B0228F6D9032006E0002004E019
:100D2000002002E0012000E0002002B070BD0120A0
:100D3000FBE7C04600100240FFFFFFFEFFFFFFEF92
:100D4000FFFFC2FF30B589B004AA174B180032C8A4
:100D500032C2110002680A606A46103313CB13C214
:100D60001B681360114B5A680C231340082B19D1D0
:100D7000910C0733194004A8445C0C49C96A0B4024
:100D80006946C95CD30308D463011B1B9801C01AD0
:100D9000C0000419200209B030BD0548FFF7B4F9BE
:100DA0006043F8E70248F6E7BC3000080010024054
:100DB00000127A0070B505000C004D4B1A68012333
:100DC00013408B420BD24A490B68012293432343C1
:100DD0000B600B681A40A24201D0012070BD2B6845
:100DE0009B0706D5434A5368F0218B43A9680B4300
:100DF00053602B68DB074BD56B68012B20D0022B8F
:100E000024D03C4A126892076FD53A494A680320B9
:100E1000824313434B60FFF71BFA06006B68012BFC
:100E20001AD0022B26D0334B5B680C221A422FD0EB
:100E3000FFF70EFA801B304B9842F4D90320CDE720
:100E40002C4A12689203E0D40120C7E7294A1268AD
:100E50009201DAD40120C1E7264B5A680C231340D3
:100E6000042B15D0FFF7F4F9801B234B9842F3D9DC
:100E70000320B3E71F4B5A680C231340082B07D0FD
:100E8000FFF7E6F9801B1C4B9842F3D90320A5E736
:100E9000174B1A6801231340A3420BD914490B685E
:100EA0000122934323430B600B681A40A24201D0F6
:100EB000012093E72B685B0706D50E4A53680F495C
:100EC0000B40E9680B435360FFF73CFF094B5A683E
:100ED00012090F2313400A4AD35CD840094B18600B
:100EE000002001F071FF002078E7012076E7C0467E
:100EF000002002400010024088130000FFF8FFFFAE
:100F00002C31000898000020014B18687047C0463B
:100F10009800002010B5FFF7F7FF044B5A68120A3B
:100F200007231340024AD35CD84010BD0010024092
:100F30003C31000810B5072303600A4B5C680322AC
:100F4000224042605C68F022224082605B68E022BE
:100F5000D2001340C360044B1A68012313400B6096
:100F600010BDC046001002400020024070470368D8
:100F7000DA6801210A43DA60026813680B431360E0
:100F800000207047704770477047704710B50400E5
:100F900003681A6992070FD5DA6892070CD5032205
:100FA00052421A610123037703689B699B0763D050
:100FB000FFF7E9FF0023237723681A69520712D548
:100FC000DA6852070FD5052252421A6102232377AD
:100FD00023689A69C0239B001A4253D02000FFF770
:100FE000D2FF0023237723681A69120710D5DA6825
:100FF00012070DD5092252421A6104232377236870
:10100000DB699B0745D02000FFF7BDFF0023237756
:1010100023681A69D20612D5DA68D2060FD51122D2
:1010200052421A61082323772368DA69C0239B00A0
:101030001A4235D02000FFF7A6FF0023237723684C
:101040001A69D20702D5DA68D20730D423681A6940
:10105000120602D5DA68120630D423681A695206DD
:1010600002D5DA68520630D423681A69920602D58E
:10107000DA68920630D410BDFFF784FF2000FFF736
:1010800083FF97E72000FFF77DFF2000FFF77CFF3D
:10109000A7E72000FFF776FF2000FFF775FFB5E711
:1010A0002000FFF76FFF2000FFF76EFFC5E7022269
:1010B00052421A61200001F0FBFDC7E78122524233
:1010C0001A61200000F075F8C7E7412252421A6108
:1010D0002000FFF75AFFC7E7212252421A61200081
:1010E00000F066F8C7E7000003681D4A904202D08E
:1010F0001C4A904203D1702293434A681343184A12
:1011000090420ED0174A90420BD0174A904208D016
:10111000164A904205D0164A904202D0154A904293
:1011200003D1154A1340CA681343802293434A6986
:10113000134303608B68C3620B688362084B984259
:1011400008D00A4B984205D0094B984202D0094B6F
:10115000984201D10B690363012343617047C04684
:10116000002C0140000400400020004000400140ED
:101170000044014000480140FFFCFFFF70B5041E21
:1011800014D03D23C35C002B0AD03D2502236355B8
:10119000211D2068FFF7A8FF01236355002070BDC3
:1011A0003C330022C254FFF7E1FEEEE70120F6E7F0
:1011B0007047704702681368C0218B43136069232E
:1011C0002022C254704700000268136806490B4091
:1011D0001360026893682331FF318B4393606A2365
:1011E0002022C2547047C046DFFEFFFFF8B504005E
:1011F0006A20205C202842D1002942D0002A42D017
:1012000080235B01A068984232D06823E35C012B05
:101210003BD068270126E65561655823E252002538
:10122000E56612332221E154636E19499962636EB7
:101230001849D962636E18491963636E5D6321684A
:1012400024311300626D606EFFF798F8E55522684F
:10125000116880235B000B4313602268936833435B
:1012600093602268936840210B439360002007E05D
:101270002369002BC9D1CB07C7D5012000E002208C
:10128000F8BD0120FCE70120FAE70220F8E7C0469C
:101290009D120008E3120008EF12000810B5436A1F
:1012A00002681268920615D45A22002199521968D0
:1012B0000A680A4802400A6019688A680330FF30E9
:1012C00082438A6019688A683F3082438A606A2252
:1012D00020219954180001F0FBFA10BDFFFEFFFF1A
:1012E000704710B5406AFFF7FBFF10BD704710B59F
:1012F000446A6923E35C212B0BD06A23E35C222B35
:1013000012D0E36E10221343E3662000FFF7EEFFD6
:1013100010BD23689B681B06EFD552230022E252C2
:101320002000FFF747FFE8E723689B685B06E8D5E6
:101330005A230022E2522000FFF746FFE1E70000B7
:1013400070B5040083680269134342691343C2699C
:10135000134301680A686048024013430B60226827
:1013600053685E490B40E1680B435360A269236AEE
:101370001A4321688B685A48034013438B602568E1
:10138000584B9D4220D0584B9D4231D01023802293
:101390001202E16991422FD0022B00D180E000D8E7
:1013A0006EE0042B00D187E0082B00D092E061684A
:1013B000480880231B029C466044FEF7A5FE0004FB
:1013C000000CE860002040E0484B1A6B03231340F8
:1013D000012B09D0002B05D0022B07D0032B09D0FD
:1013E0001023D4E70023D2E70423D0E70823CEE775
:1013F0000023CCE70223CAE7022B27D00FD9042B06
:101400002FD0082B39D16368580880235B029C4693
:1014100060446168FEF778FE83B200200CE0002B88
:101420002BD1FFF777FD400063685B08C018616847
:10143000FEF76AFE83B200200F22190091435B1071
:10144000083A13400B432268D36070BD63685808A4
:10145000274B9C4660446168FEF756FE83B200202D
:10146000EAE7FFF76FFC400063685B08C01861683B
:10147000FEF74AFE83B20020DEE701200023DBE70F
:10148000002B27D1FFF746FD63685B08C018616831
:10149000FEF73AFE23680004000CD8600020D4E771
:1014A00061684808134B9C466044FEF72DFE00041B
:1014B000000CE8600020C8E7FFF744FC63685B08A5
:1014C000C0186168FEF720FE23680004000CD86095
:1014D0000020BAE70120B8E7F369FFFFFFCFFFFF65
:1014E000FFF4FFFF003801400044004000100240BC
:1014F0000024F40000127A00436ADB0706D5026874
:1015000053682C490B40816A0B435360436A9B0725
:1015100006D50268536828490B40C16A0B435360E3
:10152000436A5B0706D50268536824490B40016B88
:101530000B435360436A1B0706D502685368204972
:101540000B40416B0B435360436ADB0606D50268D0
:1015500093681C490B40816B0B439360436A9B0665
:1015600006D50268936818490B40C16B0B43936022
:10157000436A5B060BD50268536814490B40016C43
:101580000B43536080235B03026C9A420AD0436A88
:101590001B0606D5026853680D490B40816C0B434E
:1015A00053607047026853680A490B40416C0B4313
:1015B0005360ECE7FFFFFDFFFFFFFEFFFFFFFBFFB8
:1015C000FF7FFFFFFFEFFFFFFFDFFFFFFFFFEFFFEB
:1015D000FFFFF7FFFFFF9FFF0023C3662022692163
:1015E0004254013142544832835400207047000075
:1015F00010B5041E30D06923C35C002B22D06923B0
:101600002422E2542268136801218B4313602000D6
:10161000FFF796FE012814D0636A002B18D12268C8
:1016200053680E490B4053602268936808218B432E
:1016300093602268136807390B4313602000FFF79B
:10164000CBFF10BD68330022C25401F071FBD6E716
:101650002000FFF751FFE2E70120F2E7FFF7FFFF6D
:10166000F0B5C64600B506000C0017009846069D6A
:101670003368DB6923401B1B5A425341BB421ED1D6
:101680006B1CF5D0002D05D0FEF7E2FD4346C01AD5
:10169000A842EDD9326813680B490B4013603268D9
:1016A0009368A331FF318B43936020236922B354A5
:1016B0000132B35448330022F254032000E00020EA
:1016C00004BC9046F0BDC0465FFEFFFFF0B585B09C
:1016D00004000E0017001D006923C35C202B59D1A4
:1016E00000295AD0002A5AD080235B0182689A428E
:1016F00013D06823E35C012B53D068230122E2540A
:101700000023E36669332032E254FEF7A1FD039023
:101710005023E7520233E7520AE00369002BE8D175
:10172000CB07E6D5012036E03378226813850136F1
:101730005223E35A9BB2002B1CD05222A35A013BE6
:101740009BB2A3520095039B002280212000FFF74B
:1017500087FF002827D180235B01A2689A42E3D14A
:101760002369002BE0D13388DB05DB0D226813856C
:101770000236DDE70095039B002240212000FFF7A1
:101780006FFF002811D169232022E254013B00227F
:10179000E25400E0022005B0F0BD0120FBE701208B
:1017A000F9E70220F7E70320F5E70320F3E78428B1
:1017B00001D0033070470020FCE710B500F090FB2B
:1017C000002010BDF0B585B00D00466807680469BB
:1017D0000823C05EFFF7EBFFA2B203AB01930090BA
:1017E0002B003900300000F009FB012802D10398DA
:1017F00005B0F0BD0020FBE710B5002800D1013096
:1018000000F082FC002010BD10B501290DD103228B
:101810000021012000F01EF9041E04D00023002244
:10182000002100F036F9200010BD0024FBE7030082
:1018300008334360012252428260C3600361002387
:101840000360704700230361704743684B609A68E8
:101850008A609A6851609960086103680133036087
:10186000704730B50C68631C02D00200083202E0F9
:10187000026904E01A0053681D68A542FAD953684A
:101880004B6099608A6051600861036801330360AE
:1018900030BD036942688168916082684168516027
:1018A0005A68824205D0002202611A68501E1860F0
:1018B000704782685A60F6E710B5040000F028FE11
:1018C000A26BE36B9A4204D0002400F02DFE2000AE
:1018D00010BD0124F9E770B504001600856B026C99
:1018E000002A0CD10368002B03D000200135A5632A
:1018F00070BD406800F08EFD00236360F6E7002EA7
:101900000ED1806801F0A4FBA368226C9446634466
:10191000A360626893421BD32368A3600020E5E7BD
:10192000C06801F095FB236C5A42E3689B18E360A2
:1019300021688B4203D263689C466244E260022EB7
:1019400001D00020D2E7002D04D0013D0020CDE7DA
:101950000020CBE70020C9E770B5050000F0D8FDF6
:101960004523EC5C64B203E000F03CFD013C64B252
:10197000002C09DD6B6A002B06D02800243000F013
:10198000B7FC0028F2D0EFE74523FF22EA5400F02D
:10199000CBFD00F0BDFD4423EC5C64B203E000F03D
:1019A00021FD013C64B2002C09DD2B69002B06D01F
:1019B0002800103000F09CFC0028F2D0EFE7442310
:1019C000FF22EA5400F0B0FD70BD70B504000D00B8
:1019D000002801D172B6FEE700F09AFD2268E36BA1
:1019E000206C01005943511861600021A163A2607D
:1019F000013B4343D318E360FF234422A354013245
:101A0000A354002D0FD12369002B03D100F08CFDCE
:101A1000012070BD2000103000F06AFC0028F5D0D5
:101A200000F06AFDF2E720001030FFF700FF200011
:101A30002430FFF7FCFEE9E710B5029B002907D030
:101A40001A60D863196401211800FFF7BEFF10BDAA
:101A50001B60F6E7F0B583B006000F001500002804
:101A600001D172B6FEE7002902D00800704300E001
:101A70000020483000F026FE041E07D00200483245
:101A800000902B0039003000FFF7D6FF200003B094
:101A9000F0BDF0B585B004000F0001921D000028D4
:101AA00006D0002906D1036C002B03D072B6FEE7E6
:101AB00072B6FEE7022D04D1E36B012B01D072B6A2
:101AC000FEE700F095FC002804D1019B002B03D019
:101AD00072B6FEE7002631E000262FE02A0039002A
:101AE0002000FFF7F8FE636A002B04D100280AD01B
:101AF00000F002FD07E02000243000F0F9FB002890
:101B000001D000F0F9FC00F00FFD012005B0F0BDA0
:101B100000F00AFD0020F9E702A800F025FC0136DC
:101B200019E044230022E25420E045230022E2543D
:101B300021E02000FFF710FF00F07CFA00F0E8FC45
:101B4000A36BE26B9342C9D3022DC7D0019B002B3C
:101B5000DED0002EE0D000F0E7FC00F0EBF900F062
:101B6000D7FC4423E35C5BB20133DAD04523E35C6A
:101B70005BB20133D9D000F0D7FC01A902A800F074
:101B8000FFFB002813D12000FFF796FE0028D0D0DD
:101B900020001030019900F099FB2000FFF7DCFED7
:101BA00000F048FA0028C9D100F0A6FCC6E72000E2
:101BB000FFF7D2FE00F03EFA0020A7E700280BD086
:101BC000094B42699A4209D1826A14339A4207D07A
:101BD000002A07D00020704772B6FEE70020FAE71F
:101BE0000020F8E70120F6E7FC000020084B9B6A84
:101BF0001B68002B06D0064B9A6AD268D2685268DE
:101C0000DA627047024B01225242DA62F9E7C046BB
:101C1000FC00002010B50400006B00F0B7FD2000B0
:101C200000F0B4FD10BD0000F0B583B0009001934A
:101C3000089C0A9E1D4B9C4662449200336B9C4656
:101C4000624407239A43170000230F2B09D8C818B2
:101C50000578F218343215700278002A01D0013369
:101C6000F3E743230022F254062C00D90624F46241
:101C700074640025B564301DFFF7E4FD30001830B2
:101C8000FFF7E0FD366107231C1BB4617662F56443
:101C90004933F554019A0099380000F01BFC30607C
:101CA000099B002B00D01E6003B0F0BDFFFFFF3F7B
:101CB00070B5002407E0A3001B1998000F4BC01853
:101CC000FFF7B5FD0134062CF5D90D4C2600303652
:101CD0003000FFF7ACFD250044352800FFF7A7FDD5
:101CE00020001430FFF7A3FD20005830FFF79FFDC0
:101CF0002000FFF79CFDA662E56670BD9C010020F8
:101D0000FC00002010B5040000F002FC1F4B1A6F0D
:101D100001321A675B6F002B0CD01C4B9B6F002BA2
:101D20000DD11A4B5B6FDB6AE26A934207D8174BFF
:101D30005C6704E0154B5C671B6F012B1FD0134AD7
:101D4000D36F0133D367E26A114B1B689A4201D902
:101D50000F4B1A60211D93009B1898000D4BC01863
:101D6000FFF773FD00F0E0FB084B9B6F002B05D0E5
:101D7000064B5B6FDA6AE36A9A4203D310BDFFF742
:101D800097FFDCE700F0B8FBF8E7C046FC00002056
:101D90007C0100209C01002070B504000D00154B53
:101DA0005E68154B586F0430FFF773FD631C11D04C
:101DB0003419114B5B6F5C60A64213D80E4DA86AB4
:101DC000696F0431FFF74DFDEB6AA34210D90A4B4E
:101DD000DC620DE0002DEBD00748416F0431FFF7C6
:101DE00034FD05E0044BD86E596F0431FFF739FD1F
:101DF00070BDC0467C010020FC000020F0B587B01B
:101E00000490059114001F00900000F05BFC061E7A
:101E10001ED0542000F056FC051E15D00663002D80
:101E200019D00023039302950D9B01930C9B009303
:101E30003B00220005990498FFF7F6FE2800FFF703
:101E400061FF012007B0F0BD300000F09FFCE6E725
:101E500001204042F6E701204042F3E7F8B5041EB6
:101E600001D172B6FEE700F06FFB05002000FFF71E
:101E7000A5FE00282BD0174BDB68002B1FD1164B7B
:101E80005B6FDB6AE26A9A4217D20027261D300098
:101E9000FFF7FFFCE36A0F4A1268934201D90D4A2B
:101EA0001360142058430D4BC0183100FFF7CDFCD0
:101EB000280000F04EFB3800F8BD0127E6E72100BE
:101EC000183105481430FFF7C0FC0027F0E7002761
:101ED000EEE7C0467C010020FC0000209C010020B1
:101EE00000B583B00F4B10330193002300935422AD
:101EF0000D490E48FFF782FF012803D0431C0ED086
:101F000003B000BD72B60A4B01225242DA620232BD
:101F10009A67044B00225A6000F06AFBF0E772B641
:101F2000FEE7C0467C0100204431000889210008FA
:101F3000FC000020024AD3680133D3607047C046DA
:101F40007C010020F8B5384BDB68002B60D1364BA4
:101F50005D6801355D60002D11D1344B9B6A1B68B3
:101F6000002B01D072B6FEE7304B9A6AD96E9962A7
:101F7000DA662D4A536901335361FFF737FE2B4B65
:101F8000DB6AAB423AD90024284B5B6FDA6A9300D4
:101F90009B189A00264BD358012B3ED901243CE0D4
:101FA0000124224B9B6A1B68002B29D01F4B9B6A84
:101FB000DB68DE6873689D4227D3371D3800FFF762
:101FC00068FCB36A002B03D030001830FFF761FCC7
:101FD000F26A154B1B689A4201D9134B1A609300A1
:101FE0009B189800124BC0183900FFF72EFCF26ABC
:101FF0000E4B5B6FDB6A9A42D2D2D2E70024D0E765
:102000000A4B01225242DA62BEE7084AD362BBE7BA
:10201000054A9369013393610024034BDB69002B6C
:1020200000D001242000F8BD7C010020FC0000202D
:102030009C01002070B5314BDB68002B01D172B6DA
:10204000FEE700F065FA2D4BDA68013ADA60DB68EA
:10205000002B4ED12A4B1B6F002B04D1002400F023
:1020600063FA200070BD0024254B5B69002B23D050
:10207000234B1B6ADC6820001830FFF70AFC251D83
:102080002800FFF706FCE26A1C4B1B689A4201D944
:102090001A4B1A6093009B1898001A4BC01829001D
:1020A000FFF7D3FB164B5B6FDB6AE26A9A42DBD326
:1020B000124B0122DA61D7E7002C01D0FFF796FD21
:1020C0000E4B9C69002C0CD0FFF73CFF002802D07F
:1020D0000A4B0122DA61013C002CF5D1074B0022AA
:1020E0009A61064BDB69002B05D000F005FA01244C
:1020F000B5E70024B3E70024B1E7C0467C01002027
:10210000FC0000209C01002010B5041E0FD0094BDC
:10211000DB68002B01D072B6FEE7FFF70BFF002152
:102120002000FFF739FEFFF785FF002801D100F0FE
:10213000E3F910BD7C01002070B5114B9B68002BAA
:102140001CD0FFF7F7FE0F4B9C6DFFF773FF002CC1
:10215000F3D000F0DDF90B4C636EDD68281DFFF74E
:1021600098FB236F013B2367054A9368013B93600B
:1021700000F0DAF92800FFF74DFDDEE770BDC0463C
:102180007C010020FC00002010B5FFF7D5FF034BB9
:102190001B68012BF9D900F0AFF9F6E79C0100208C
:1021A00070B5234BDB68002B03D0214B0122DA6191
:1021B00070BD1F4B0022DA611E4B5A6F12685B6FB5
:1021C0001B6B9A4205D81B4B586F596F343100F086
:1021D00051FC174B1B689A00D2189100164A8A5876
:1021E000002A05D1002B01D0013BF4E772B6FEE7CF
:1021F000114D9900CA18900028184268546844602C
:10220000C9188A000832521994420BD09A00D21889
:102210009100094A52185268D168064A5167044A27
:102220001360C5E76068142159436A185060EDE7F0
:102230007C010020FC0000209C01002070B50400FF
:1022400000F066F9002C19D0261D3000FFF721FBA5
:10225000A36A002B03D020001830FFF71AFB194D9A
:1022600031002800FFF7F1FA00F05EF9AB6F002BA8
:1022700007D1144B5B6FA3420AD070BD114B5C6F4A
:10228000E2E700F045F9FFF7B1FC00F04DF9F0E7A7
:102290000C4B9B6F002B08D00B4BDB68002B01D045
:1022A00072B6FEE700F028F9E7E7064B1A681B6FE5
:1022B0009A4202D0FFF774FFDFE7024B00225A6711
:1022C000DBE7C046FC0000207C01002010B50C00BC
:1022D000002801D172B6FEE7044B596F1831FFF7A1
:1022E000C0FA01212000FFF757FD10BDFC000020BF
:1022F00070B5C368DC68002C01D172B6FEE725001A
:1023000018352800FFF7C5FA144BDB68002B1DD1E8
:10231000251D2800FFF7BDFAE26A104B1B689A42A0
:1023200001D90E4B1A6093009B1898000C4BC018F3
:102330002900FFF78AFAE26A0A4B5B6FDB6A9A426E
:102340000AD9064B0122DA61012070BD0548290037
:102350001430FFF77AFAEEE70020F6E77C01002060
:102360009C010020FC000020002805D0034B5A6986
:1023700002605B684360704772B6FEE77C01002034
:1023800070B504000D00002803D0002903D172B6F7
:10239000FEE772B6FEE700F0BBF8114B59682B68F8
:1023A0005A1C18D00E4A52692068904202D06268C6
:1023B0008A4212D96268881A834204D8012400F044
:1023C000B3F8200070BD521A9B182B602000FFF755
:1023D000CBFF0024F3E70024F1E70124EFE7C04638
:1023E0007C010020014B0122DA6170477C01002052
:1023F000064B9B6F002B07D0054BDB68002B01D0F1
:10240000002002E0022000E001207047FC000020D4
:102410007C01002070B5041E2AD0184B5B6F8342EC
:1024200001D072B6FEE7836C002B01D172B6FEE7D5
:10243000013B8364C26A416C8A421BD0002B1BD1D2
:10244000051D2800FFF725FA636CE3620722D21A04
:10245000A2610B4A1268934201D9094A1360142001
:102460005843084BC0182900FFF7EFF9012000E09E
:10247000002070BD0020FCE70020FAE7FC000020EF
:102480007C0100209C010020034B1B68013301D01C
:1024900072B6FEE772B6FEE7000000200000000002
:1024A0000B4A13681868203080F30988022080F3F3
:1024B0001488BFF36F8F3FBCAE4608BC04BC62B645
:1024C0001847C046C046C046C046C046C046C04683
:1024D0007001002010B5031F802464041C60043BBD
:1024E0001960043B02491960143B1A60403810BD62
:1024F0008924000870470000044B802252051A60AE
:10250000BFF34F8FBFF36F8F7047C04604ED00E0FD
:1025100072B6044A136801331360BFF34F8FBFF3E1
:102520006F8F704700000020064B1B68002B01D105
:1025300072B6FEE7013B034A1360002B00D162B67E
:102540007047C04600000020EFF3108072B670475D
:10255000002080F310887047000000000000000099
:10256000EFF309800E4B1A6820381060F0C0444623
:102570004D4656465F46F0C008B572B6FFF710FEEE
:1025800062B60CBC116808681030F0C8A046A946B5
:10259000B246BB4680F309882038F0C81847C046C9
:1025A0007001002010B5FFF7CFFF0400FFF7CAFC51
:1025B000002803D0034B802252051A602000FFF749
:1025C000C8FF10BD04ED00E010B5064B1868FA21F5
:1025D0008900FDF799FD0138034B1860034B072272
:1025E0001A6010BD9800002014E000E010E000E048
:1025F00010B50A4B1968FF2212040A431A601968C1
:10260000FF2212060A431A60FFF7DEFF044B002286
:102610001A60FFF745FFFFF737FFC04620ED00E0E7
:102620000000002010B5114A53071BD0D11D07230D
:102630009943C0231B015B1A9B180A000C490A60CE
:1026400000204860D318083B0724A3438B605860E0
:102650001860981A50601360C860086180231B06D8
:102660004B6110BDC0231B01E8E7C04640020020BB
:102670002802002010B5124B1A68824219D35968FB
:102680005C18844203D140680918596018004168F9
:102690004418A24211D10A4CA468A2420BD052683D
:1026A000891841601A6812680260984200D0186068
:1026B00010BD1300E0E70460F7E70260F5E7C046ED
:1026C0002802002070B50400FFF734FC2E4B9B68F5
:1026D000002B0FD02C4B5B6923424AD1002C0CD02D
:1026E0000834630709D007239C430834234204D0ED
:1026F00072B6FEE7FFF796FFECE7002C3BD0224BCB
:102700001B69A34239D3204B1D6801E02B00150043
:102710006A68A24202D22A68002AF7D11A4A92684D
:10272000AA422CD01E6808362A681A606B681B1BE8
:10273000102B08D92819420701D072B6FEE7436072
:102740006C60FFF797FF69680F4A13695B1A1361A2
:10275000D268934201D20C4AD3600B4B5B690B43A6
:102760006B6000232B60FFF765FC730709D072B61E
:10277000FEE70026F7E70026F5E70026F3E7002648
:10278000F1E7300070BDC0462802002070B5002877
:1027900020D00500083D6B680F4A52691A4201D1EA
:1027A00072B6FEE7010008390968002901D072B647
:1027B000FEE70838040093434360FFF7BBFB636800
:1027C000054A11698C46634413612800FFF752FFE4
:1027D000FFF730FC70BDC0462802002010B5032270
:1027E00002490348FEF702FD10BDC046501000200C
:1027F0009C12002010B50400174900F03AFC002894
:1028000009D11649200000F034FC002813D1144BE4
:1028100002221A700EE0902001222021C005FEF74E
:102820004EF8012320220F490F48FEF74FFF0C4BB3
:1028300000221A7010BD902000222021C005FEF752
:102840003EF808490123212220310748FEF73EFFC8
:10285000034B00221A70EDE74C3100085431000898
:10286000400E0020040000209C12002010B50A4BEE
:102870001B78022B00D010BD0849013B18224431BF
:102880000748FEF723FF19220021064800F0E9FB64
:10289000014B00221A70EEE7400E002004000020D9
:1028A0009C1200205010002030B500220CE01301D3
:1028B000C31806241C7005215970B4256D005D8075
:1028C00059609C60197301321D2AF0D930BD000097
:1028D00010B5214C2000FFF7E7FF20490F2000F042
:1028E00047F802231E222100002000F047F80223AF
:1028F0001E221B49002000F08BF81A4B1B78002B7E
:1029000002D0012B23D010BD174B1B782A2B03D0EC
:10291000144B02221A70F6E7134B9B78232BF7D146
:10292000114B5A78192A03D90E4B02221A70EAE782
:1029300092B21C0019000D48FEF758FC094B012209
:102940001A7018320021200000F08BFBDBE70648EC
:10295000FFF750FFD7E7C046700E002000F00008D8
:102960006C100020400E0020501000209C1200200F
:10297000014B19607047C046440E0020F0B5C646B2
:1029800000B584B00F0090461C00204B1D682D1828
:1029900000230093019504330293FDF7ADFD03A9D5
:1029A0006846FDF76DFEFDF7BFFDFDF7A5FD012CA7
:1029B00013D9022C27D0FDF7B7FD04B004BC904614
:1029C000F0BD6300DA5B002329000120FDF7E4FD80
:1029D000023501344445F4D3EDE70024FAE77200F0
:1029E0009219D300A2009B18FA58D317290002208D
:1029F000FDF7D2FD04350134052CF0D901364645EA
:102A0000D9D20024F8E70026F9E7C046440E00209A
:102A100070B5174C24682018012B15D0002B09D055
:102A2000022B22D070BD0478CC5401300133934284
:102A3000F9D3F7E70023FAE75C0005880D5302306D
:102A400001339342F8D3EDE70023FAE77400A419A9
:102A5000E300AC001B1910C8CC500135052DF5D989
:102A600001369642DED20025F8E70026F9E7C04697
:102A7000440E00207047000070B588B01422002179
:102A800003A800F0EEFA204B5969802000030143AF
:102A900059615A6902400192019A5A69802189025A
:102AA0000A435A615B690B400293029B9025ED0536
:102AB000002220212800FDF702FF80239B010393C1
:102AC00000240494059403A91048FDF72BFE012669
:102AD00003960F4B04930223059303A92800FDF7E7
:102AE00021FE2023039304960594069403A928004D
:102AF000FDF718FE002203210520FDF7AFFB05209E
:102B0000FDF7DCFB08B070BD001002400008004873
:102B10000000111000B583B0094A5169012319431F
:102B20005161526913400193019B002203210B2044
:102B3000FDF794FB0B20FDF7C1FB03B000BDC046C1
:102B40000010024010B50948094B0360E1235B0205
:102B5000436000238360C36003610C224261836190
:102B6000C36103624362FEF743FD10BD9C12002067
:102B70000044004010B500F0BDF9FCE710B500F0CE
:102B8000CFF9FCE710B500F0E5F9FCE710B500203F
:102B9000FFF754FB00F0F6F9F9E710B590B02C22DE
:102BA000002105A800F05DFA10220021684600F01F
:102BB00058FA02240494012307930F3308930C94CA
:102BC000A0239B030E9304A8FDF792FE0723009316
:102BD000019400230293039301216846FEF7EAF86B
:102BE00010B010BD70B596B0FDF71AFBFFF7D5FF1A
:102BF000FFF742FFFFF78EFFFFF7A4FF00231593B7
:102C0000012115A8FEF700FE214B186010A8214CE9
:102C10000300220062CA62C322CA22C30021FEF757
:102C2000D1FD1D4B18600BA802002300143362CBAA
:102C300062C222CB22C20021FEF7C4FD174B1860EE
:102C400006A802002300283362CB62C222CB22C234
:102C50000021FEF7B7FD124B186001A802003C34BA
:102C60002ACC2AC20ACC0AC20021FEF7ABFD0D4BCA
:102C70001860012323220C490C48FEF727FDFA2097
:102C8000C000FEF7B9FD00F01DF9FEF796FDFEE766
:102C90000C130020DC3000084C1200201013002020
:102CA0009812002094120020740000209C12002032
:102CB00010B50268034B9A4200D010BDFDF7C0FA70
:102CC000FBE7C046000400407047000010B501203B
:102CD000FDF700FE054B1868FFF7C0F8002803D089
:102CE000034B802252051A6010BDC046941200208A
:102CF00004ED00E000B583B00C4B9969012211434B
:102D0000996199690A400092009ADA69802149051F
:102D10000A43DA61DB690B400193019B0220002228
:102D200003214042FDF79AFA03B000BD00100240B3
:102D300010B588B004001422002103A800F091F916
:102D40001D4B22689A4201D008B010BD1B4BD969B7
:102D5000802292021143D961D969114001910199F0
:102D60005969114359615B691A400292029B0C2315
:102D700003930A3B049301330693023B079390208D
:102D800003A9C005FDF7CEFC0D480E4B03600023E0
:102D9000436083608022C260036143618361C361D9
:102DA000FDF7C0FA002803D1054B63665C62CBE7F0
:102DB000FFF78AFFF8E7C0460044004000100240D9
:102DC000501200205800024000B587B001000022D8
:102DD0001020FDF743FA1020FDF770FA134AD1696D
:102DE00002231943D161D26913400093009B01A9CA
:102DF00002A8FEF79FF8FEF78DF80D49FDF784F95C
:102E0000431E0C480C4A02600C4AC2604360002317
:102E100003618360FEF7B2F9002802D0012007B0F9
:102E200000BD0448FEF7A3F8F9E7C04600100240D1
:102E300040420F001413002000040040E70300008C
:102E40007047FEE710B50248FDF7D3FA10BDC04643
:102E50005012002010B50248FEF798F810BDC04689
:102E600014130020114B1A6801210A431A605A6892
:102E70000F4802405A601A680E4802401A601A68E9
:102E80000D4802401A605A680C4802405A60DA6ADB
:102E90000F208243DA621A6B094802401A635A6BA8
:102EA0008A435A6300229A607047C046001002406D
:102EB0000CB8FF08FFFFF6FEFFFFFBFFFFFFC0FFA0
:102EC000ECFEFFFF10B5802189010948FDF7F0FCF9
:102ED000012808D0802189010548FDF7E9FC002878
:102EE00003D0002000E0002010BD0120FCE7C04618
:102EF0000008004810B5902000222021C005FDF7F1
:102F0000DEFC01230E2204490448FEF7DFFBFA2011
:102F1000C000FEF771FC10BD9C0000209C12002038
:102F200010B590202021C005FDF7CFFC07490123F3
:102F3000102210310648FEF7C9FBFA20C000FEF748
:102F40005BFCFFF74BFCFFF791FC10BD9C000020E1
:102F50009C12002010B5902001222021C005FDF711
:102F6000AEFC064901230E2220310548FEF7AEFBD8
:102F7000FA20C000FEF740FC10BDC0469C000020B7
:102F80009C12002010B5902001222021C005FDF7E1
:102F900096FC06490123132230310548FEF796FBC3
:102FA000FA20C000FEF728FC10BDC0469C0000209F
:102FB0009C1200200D4885460D480E490E4A0023FC
:102FC00002E0D458C4500433C4188C42F9D30B4ADD
:102FD0000B4C002301E013600432A242FBD3FFF745
:102FE00041FF00F011F8FFF7FDFDFEE70020002093
:102FF00000000020E000002088310008E0000020F0
:1030000054130020FEE7000070B500260C4D0D4C57
:10301000641BA410A64209D1002600F043F80A4D13
:103020000A4C641BA410A64205D170BDB300EB5836
:1030300098470136EEE7B300EB5898470136F2E7C0
:103040008031000880310008803100088431000898
:10305000002310B59A4200D110BDCC5CC45401339A
:10306000F8E703001218934200D17047197001333A
:10307000F9E710B50378002B0FD10B785A42534172
:103080005B42184010BD0023CA5C002AFAD0C45C21
:10309000944201D10133F7E701300378002BF2D1DC
:1030A0001800EFE7F8B5C046F8BC08BC9E4670476C
:0C30B000F8B5C046F8BC08BC9E4670474E
:1030BC0002030405060708090A0B0C0D0E0F10106D
:1030CC000102030405060708090A0B0C0D0E0F106C
:1030DC0078310008752B0008FFFF0000000000008D
:1030EC0080000000703100087D2B000801000000FA
:1030FC00000000008000000064310008852B0008EF
:10310C000000000000000000800000005C3100089E
:10311C008D2B000802000000000000008000000061
:10312C00000000000000000001020304060708096B
:10313C00000000000102030449444C45000000005B
:10314C004C4544204F4E00004C4544204F46460011
:10315C005049525F494F54004750535F56616C754C
:10316C006500000073656E736F7200006D6F746F95
:04317C0072000000DD
:04318000E90000085A
:04318400C10000087E
:10318800AAAAAAAA4F4E4520524543454956454446
:1031980020534F204C45442057494C4C204F4E0D4E
:1031A8000A0000005A45524F2052454345495645AA
:1031B8004420534F204C45442057494C4C204F46FF
:1031C800460D0A000000000057524F4E4720444168
:1031D80054412E2E2E2E2E2E2E2E2E2E2E0D0A0041
:1031E800554E4B4E4F574E20454E5452590D0A00DE
:1031F80000000000494E5449414C20434845434B88
:10320800494E472E2E2E2E2E2E2E2E2E2E2E2E2E82
:103218002E2E2E2E2E0D0A0000127A004D6F746F7E
:1032280072204379636C69630D0A000053656E73FD
:103238006F72204379636C69630D0A00475053200D
:103248004379636C69630D0A000000005049525FBE
:10325800494F54204379636C69630D0A00000000EC
:0400000508002FB50B
:00000001FF
